{
  "_format": "hh-sol-artifact-1",
  "contractName": "Mint",
  "sourceName": "contracts/Mint.sol",
  "abi": [
    {
      "inputs": [
        {
          "internalType": "string",
          "name": "name",
          "type": "string"
        },
        {
          "internalType": "string",
          "name": "symbol",
          "type": "string"
        }
      ],
      "stateMutability": "nonpayable",
      "type": "constructor"
    },
    {
      "anonymous": false,
      "inputs": [
        {
          "indexed": true,
          "internalType": "address",
          "name": "owner",
          "type": "address"
        },
        {
          "indexed": true,
          "internalType": "address",
          "name": "approved",
          "type": "address"
        },
        {
          "indexed": true,
          "internalType": "uint256",
          "name": "tokenId",
          "type": "uint256"
        }
      ],
      "name": "Approval",
      "type": "event"
    },
    {
      "anonymous": false,
      "inputs": [
        {
          "indexed": true,
          "internalType": "address",
          "name": "owner",
          "type": "address"
        },
        {
          "indexed": true,
          "internalType": "address",
          "name": "operator",
          "type": "address"
        },
        {
          "indexed": false,
          "internalType": "bool",
          "name": "approved",
          "type": "bool"
        }
      ],
      "name": "ApprovalForAll",
      "type": "event"
    },
    {
      "anonymous": false,
      "inputs": [
        {
          "indexed": true,
          "internalType": "address",
          "name": "previousOwner",
          "type": "address"
        },
        {
          "indexed": true,
          "internalType": "address",
          "name": "newOwner",
          "type": "address"
        }
      ],
      "name": "OwnershipTransferred",
      "type": "event"
    },
    {
      "anonymous": false,
      "inputs": [
        {
          "indexed": true,
          "internalType": "address",
          "name": "from",
          "type": "address"
        },
        {
          "indexed": true,
          "internalType": "address",
          "name": "to",
          "type": "address"
        },
        {
          "indexed": true,
          "internalType": "uint256",
          "name": "tokenId",
          "type": "uint256"
        }
      ],
      "name": "Transfer",
      "type": "event"
    },
    {
      "inputs": [
        {
          "internalType": "address",
          "name": "to",
          "type": "address"
        },
        {
          "internalType": "uint256",
          "name": "tokenId",
          "type": "uint256"
        }
      ],
      "name": "approve",
      "outputs": [],
      "stateMutability": "nonpayable",
      "type": "function"
    },
    {
      "inputs": [
        {
          "internalType": "address",
          "name": "owner",
          "type": "address"
        }
      ],
      "name": "balanceOf",
      "outputs": [
        {
          "internalType": "uint256",
          "name": "",
          "type": "uint256"
        }
      ],
      "stateMutability": "view",
      "type": "function"
    },
    {
      "inputs": [
        {
          "internalType": "address",
          "name": "",
          "type": "address"
        }
      ],
      "name": "balances",
      "outputs": [
        {
          "internalType": "uint256",
          "name": "",
          "type": "uint256"
        }
      ],
      "stateMutability": "view",
      "type": "function"
    },
    {
      "inputs": [],
      "name": "burn",
      "outputs": [],
      "stateMutability": "nonpayable",
      "type": "function"
    },
    {
      "inputs": [
        {
          "internalType": "uint256",
          "name": "tokenId",
          "type": "uint256"
        }
      ],
      "name": "getApproved",
      "outputs": [
        {
          "internalType": "address",
          "name": "",
          "type": "address"
        }
      ],
      "stateMutability": "view",
      "type": "function"
    },
    {
      "inputs": [
        {
          "internalType": "address",
          "name": "owner",
          "type": "address"
        },
        {
          "internalType": "address",
          "name": "operator",
          "type": "address"
        }
      ],
      "name": "isApprovedForAll",
      "outputs": [
        {
          "internalType": "bool",
          "name": "",
          "type": "bool"
        }
      ],
      "stateMutability": "view",
      "type": "function"
    },
    {
      "inputs": [
        {
          "internalType": "uint256",
          "name": "numberOfMints",
          "type": "uint256"
        }
      ],
      "name": "mint",
      "outputs": [],
      "stateMutability": "payable",
      "type": "function"
    },
    {
      "inputs": [],
      "name": "name",
      "outputs": [
        {
          "internalType": "string",
          "name": "",
          "type": "string"
        }
      ],
      "stateMutability": "view",
      "type": "function"
    },
    {
      "inputs": [],
      "name": "owner",
      "outputs": [
        {
          "internalType": "address",
          "name": "",
          "type": "address"
        }
      ],
      "stateMutability": "view",
      "type": "function"
    },
    {
      "inputs": [
        {
          "internalType": "uint256",
          "name": "tokenId",
          "type": "uint256"
        }
      ],
      "name": "ownerOf",
      "outputs": [
        {
          "internalType": "address",
          "name": "",
          "type": "address"
        }
      ],
      "stateMutability": "view",
      "type": "function"
    },
    {
      "inputs": [],
      "name": "renounceOwnership",
      "outputs": [],
      "stateMutability": "nonpayable",
      "type": "function"
    },
    {
      "inputs": [
        {
          "internalType": "address",
          "name": "from",
          "type": "address"
        },
        {
          "internalType": "address",
          "name": "to",
          "type": "address"
        },
        {
          "internalType": "uint256",
          "name": "tokenId",
          "type": "uint256"
        }
      ],
      "name": "safeTransferFrom",
      "outputs": [],
      "stateMutability": "nonpayable",
      "type": "function"
    },
    {
      "inputs": [
        {
          "internalType": "address",
          "name": "from",
          "type": "address"
        },
        {
          "internalType": "address",
          "name": "to",
          "type": "address"
        },
        {
          "internalType": "uint256",
          "name": "tokenId",
          "type": "uint256"
        },
        {
          "internalType": "bytes",
          "name": "_data",
          "type": "bytes"
        }
      ],
      "name": "safeTransferFrom",
      "outputs": [],
      "stateMutability": "nonpayable",
      "type": "function"
    },
    {
      "inputs": [
        {
          "internalType": "address",
          "name": "operator",
          "type": "address"
        },
        {
          "internalType": "bool",
          "name": "approved",
          "type": "bool"
        }
      ],
      "name": "setApprovalForAll",
      "outputs": [],
      "stateMutability": "nonpayable",
      "type": "function"
    },
    {
      "inputs": [
        {
          "internalType": "bytes4",
          "name": "interfaceId",
          "type": "bytes4"
        }
      ],
      "name": "supportsInterface",
      "outputs": [
        {
          "internalType": "bool",
          "name": "",
          "type": "bool"
        }
      ],
      "stateMutability": "view",
      "type": "function"
    },
    {
      "inputs": [],
      "name": "symbol",
      "outputs": [
        {
          "internalType": "string",
          "name": "",
          "type": "string"
        }
      ],
      "stateMutability": "view",
      "type": "function"
    },
    {
      "inputs": [
        {
          "internalType": "uint256",
          "name": "index",
          "type": "uint256"
        }
      ],
      "name": "tokenByIndex",
      "outputs": [
        {
          "internalType": "uint256",
          "name": "",
          "type": "uint256"
        }
      ],
      "stateMutability": "view",
      "type": "function"
    },
    {
      "inputs": [],
      "name": "tokenId",
      "outputs": [
        {
          "internalType": "uint256",
          "name": "",
          "type": "uint256"
        }
      ],
      "stateMutability": "view",
      "type": "function"
    },
    {
      "inputs": [
        {
          "internalType": "address",
          "name": "owner",
          "type": "address"
        },
        {
          "internalType": "uint256",
          "name": "index",
          "type": "uint256"
        }
      ],
      "name": "tokenOfOwnerByIndex",
      "outputs": [
        {
          "internalType": "uint256",
          "name": "",
          "type": "uint256"
        }
      ],
      "stateMutability": "view",
      "type": "function"
    },
    {
      "inputs": [
        {
          "internalType": "uint256",
          "name": "tokenId",
          "type": "uint256"
        }
      ],
      "name": "tokenURI",
      "outputs": [
        {
          "internalType": "string",
          "name": "",
          "type": "string"
        }
      ],
      "stateMutability": "view",
      "type": "function"
    },
    {
      "inputs": [],
      "name": "totalSupply",
      "outputs": [
        {
          "internalType": "uint256",
          "name": "",
          "type": "uint256"
        }
      ],
      "stateMutability": "view",
      "type": "function"
    },
    {
      "inputs": [
        {
          "internalType": "address",
          "name": "from",
          "type": "address"
        },
        {
          "internalType": "address",
          "name": "to",
          "type": "address"
        },
        {
          "internalType": "uint256",
          "name": "tokenId",
          "type": "uint256"
        }
      ],
      "name": "transferFrom",
      "outputs": [],
      "stateMutability": "nonpayable",
      "type": "function"
    },
    {
      "inputs": [
        {
          "internalType": "address",
          "name": "newOwner",
          "type": "address"
        }
      ],
      "name": "transferOwnership",
      "outputs": [],
      "stateMutability": "nonpayable",
      "type": "function"
    }
  ],
  "bytecode": "0x60806040523480156200001157600080fd5b5060405162003c2138038062003c21833981810160405281019062000037919062000283565b8181620000596200004d6200009560201b60201c565b6200009d60201b60201c565b81600190805190602001906200007192919062000161565b5080600290805190602001906200008a92919062000161565b505050505062000466565b600033905090565b60008060009054906101000a900473ffffffffffffffffffffffffffffffffffffffff169050816000806101000a81548173ffffffffffffffffffffffffffffffffffffffff021916908373ffffffffffffffffffffffffffffffffffffffff1602179055508173ffffffffffffffffffffffffffffffffffffffff168173ffffffffffffffffffffffffffffffffffffffff167f8be0079c531659141344cd1fd0a4f28419497f9722a3daafe3b4186f6b6457e060405160405180910390a35050565b8280546200016f906200038b565b90600052602060002090601f016020900481019282620001935760008555620001df565b82601f10620001ae57805160ff1916838001178555620001df565b82800160010185558215620001df579182015b82811115620001de578251825591602001919060010190620001c1565b5b509050620001ee9190620001f2565b5090565b5b808211156200020d576000816000905550600101620001f3565b5090565b60006200022862000222846200031f565b620002f6565b9050828152602081018484840111156200024157600080fd5b6200024e84828562000355565b509392505050565b600082601f8301126200026857600080fd5b81516200027a84826020860162000211565b91505092915050565b600080604083850312156200029757600080fd5b600083015167ffffffffffffffff811115620002b257600080fd5b620002c08582860162000256565b925050602083015167ffffffffffffffff811115620002de57600080fd5b620002ec8582860162000256565b9150509250929050565b60006200030262000315565b9050620003108282620003c1565b919050565b6000604051905090565b600067ffffffffffffffff8211156200033d576200033c62000426565b5b620003488262000455565b9050602081019050919050565b60005b838110156200037557808201518184015260208101905062000358565b8381111562000385576000848401525b50505050565b60006002820490506001821680620003a457607f821691505b60208210811415620003bb57620003ba620003f7565b5b50919050565b620003cc8262000455565b810181811067ffffffffffffffff82111715620003ee57620003ed62000426565b5b80604052505050565b7f4e487b7100000000000000000000000000000000000000000000000000000000600052602260045260246000fd5b7f4e487b7100000000000000000000000000000000000000000000000000000000600052604160045260246000fd5b6000601f19601f8301169050919050565b6137ab80620004766000396000f3fe6080604052600436106101405760003560e01c80634f6ccce7116100b6578063a0712d681161006f578063a0712d6814610470578063a22cb4651461048c578063b88d4fde146104b5578063c87b56dd146104de578063e985e9c51461051b578063f2fde38b1461055857610140565b80634f6ccce71461034c5780636352211e1461038957806370a08231146103c6578063715018a6146104035780638da5cb5b1461041a57806395d89b411461044557610140565b806318160ddd1161010857806318160ddd1461023e57806323b872dd1461026957806327e235e3146102925780632f745c59146102cf57806342842e0e1461030c57806344df8e701461033557610140565b806301ffc9a71461014557806306fdde0314610182578063081812fc146101ad578063095ea7b3146101ea57806317d70f7c14610213575b600080fd5b34801561015157600080fd5b5061016c6004803603810190610167919061278b565b610581565b6040516101799190612bd7565b60405180910390f35b34801561018e57600080fd5b506101976105fb565b6040516101a49190612bf2565b60405180910390f35b3480156101b957600080fd5b506101d460048036038101906101cf91906127dd565b61068d565b6040516101e19190612b70565b60405180910390f35b3480156101f657600080fd5b50610211600480360381019061020c919061274f565b610712565b005b34801561021f57600080fd5b5061022861082a565b6040516102359190612e54565b60405180910390f35b34801561024a57600080fd5b50610253610830565b6040516102609190612e54565b60405180910390f35b34801561027557600080fd5b50610290600480360381019061028b9190612649565b61083d565b005b34801561029e57600080fd5b506102b960048036038101906102b491906125e4565b61089d565b6040516102c69190612e54565b60405180910390f35b3480156102db57600080fd5b506102f660048036038101906102f1919061274f565b6108b5565b6040516103039190612e54565b60405180910390f35b34801561031857600080fd5b50610333600480360381019061032e9190612649565b61095a565b005b34801561034157600080fd5b5061034a61097a565b005b34801561035857600080fd5b50610373600480360381019061036e91906127dd565b6109a0565b6040516103809190612e54565b60405180910390f35b34801561039557600080fd5b506103b060048036038101906103ab91906127dd565b610a37565b6040516103bd9190612b70565b60405180910390f35b3480156103d257600080fd5b506103ed60048036038101906103e891906125e4565b610ae9565b6040516103fa9190612e54565b60405180910390f35b34801561040f57600080fd5b50610418610ba1565b005b34801561042657600080fd5b5061042f610c29565b60405161043c9190612b70565b60405180910390f35b34801561045157600080fd5b5061045a610c52565b6040516104679190612bf2565b60405180910390f35b61048a600480360381019061048591906127dd565b610ce4565b005b34801561049857600080fd5b506104b360048036038101906104ae9190612713565b610dc5565b005b3480156104c157600080fd5b506104dc60048036038101906104d79190612698565b610ddb565b005b3480156104ea57600080fd5b50610505600480360381019061050091906127dd565b610e3d565b6040516105129190612bf2565b60405180910390f35b34801561052757600080fd5b50610542600480360381019061053d919061260d565b610ee4565b60405161054f9190612bd7565b60405180910390f35b34801561056457600080fd5b5061057f600480360381019061057a91906125e4565b610f78565b005b60007f780e9d63000000000000000000000000000000000000000000000000000000007bffffffffffffffffffffffffffffffffffffffffffffffffffffffff1916827bffffffffffffffffffffffffffffffffffffffffffffffffffffffff191614806105f457506105f382611070565b5b9050919050565b60606001805461060a90613079565b80601f016020809104026020016040519081016040528092919081815260200182805461063690613079565b80156106835780601f1061065857610100808354040283529160200191610683565b820191906000526020600020905b81548152906001019060200180831161066657829003601f168201915b5050505050905090565b600061069882611152565b6106d7576040517f08c379a00000000000000000000000000000000000000000000000000000000081526004016106ce90612d94565b60405180910390fd5b6005600083815260200190815260200160002060009054906101000a900473ffffffffffffffffffffffffffffffffffffffff169050919050565b600061071d82610a37565b90508073ffffffffffffffffffffffffffffffffffffffff168373ffffffffffffffffffffffffffffffffffffffff16141561078e576040517f08c379a000000000000000000000000000000000000000000000000000000000815260040161078590612df4565b60405180910390fd5b8073ffffffffffffffffffffffffffffffffffffffff166107ad6111be565b73ffffffffffffffffffffffffffffffffffffffff1614806107dc57506107db816107d66111be565b610ee4565b5b61081b576040517f08c379a000000000000000000000000000000000000000000000000000000000815260040161081290612d14565b60405180910390fd5b61082583836111c6565b505050565b600c5481565b6000600980549050905090565b61084e6108486111be565b8261127f565b61088d576040517f08c379a000000000000000000000000000000000000000000000000000000000815260040161088490612e14565b60405180910390fd5b61089883838361135d565b505050565b600b6020528060005260406000206000915090505481565b60006108c083610ae9565b8210610901576040517f08c379a00000000000000000000000000000000000000000000000000000000081526004016108f890612c14565b60405180910390fd5b600760008473ffffffffffffffffffffffffffffffffffffffff1673ffffffffffffffffffffffffffffffffffffffff168152602001908152602001600020600083815260200190815260200160002054905092915050565b61097583838360405180602001604052806000815250610ddb565b505050565b6109826115c4565b600c81905550610993600c546115d6565b61099e600c5461166f565b565b60006109aa610830565b82106109eb576040517f08c379a00000000000000000000000000000000000000000000000000000000081526004016109e290612e34565b60405180910390fd5b60098281548110610a25577f4e487b7100000000000000000000000000000000000000000000000000000000600052603260045260246000fd5b90600052602060002001549050919050565b6000806003600084815260200190815260200160002060009054906101000a900473ffffffffffffffffffffffffffffffffffffffff169050600073ffffffffffffffffffffffffffffffffffffffff168173ffffffffffffffffffffffffffffffffffffffff161415610ae0576040517f08c379a0000000000000000000000000000000000000000000000000000000008152600401610ad790612d54565b60405180910390fd5b80915050919050565b60008073ffffffffffffffffffffffffffffffffffffffff168273ffffffffffffffffffffffffffffffffffffffff161415610b5a576040517f08c379a0000000000000000000000000000000000000000000000000000000008152600401610b5190612d34565b60405180910390fd5b600460008373ffffffffffffffffffffffffffffffffffffffff1673ffffffffffffffffffffffffffffffffffffffff168152602001908152602001600020549050919050565b610ba96111be565b73ffffffffffffffffffffffffffffffffffffffff16610bc7610c29565b73ffffffffffffffffffffffffffffffffffffffff1614610c1d576040517f08c379a0000000000000000000000000000000000000000000000000000000008152600401610c1490612db4565b60405180910390fd5b610c27600061178c565b565b60008060009054906101000a900473ffffffffffffffffffffffffffffffffffffffff16905090565b606060028054610c6190613079565b80601f0160208091040260200160405190810160405280929190818152602001828054610c8d90613079565b8015610cda5780601f10610caf57610100808354040283529160200191610cda565b820191906000526020600020905b815481529060010190602001808311610cbd57829003601f168201915b5050505050905090565b6000610cee610830565b905060005b82811015610d7857610d10338284610d0b9190612f08565b611850565b600b60003373ffffffffffffffffffffffffffffffffffffffff1673ffffffffffffffffffffffffffffffffffffffff1681526020019081526020016000206000815480929190610d60906130dc565b91905055508080610d70906130dc565b915050610cf3565b50610dc1600b60003373ffffffffffffffffffffffffffffffffffffffff1673ffffffffffffffffffffffffffffffffffffffff168152602001908152602001600020546115d6565b5050565b610dd7610dd06111be565b838361186e565b5050565b610dec610de66111be565b8361127f565b610e2b576040517f08c379a0000000000000000000000000000000000000000000000000000000008152600401610e2290612e14565b60405180910390fd5b610e37848484846119db565b50505050565b6060610e4882611152565b610e87576040517f08c379a0000000000000000000000000000000000000000000000000000000008152600401610e7e90612dd4565b60405180910390fd5b6000610e91611a37565b90506000815111610eb15760405180602001604052806000815250610edc565b80610ebb84611a4e565b604051602001610ecc929190612b4c565b6040516020818303038152906040525b915050919050565b6000600660008473ffffffffffffffffffffffffffffffffffffffff1673ffffffffffffffffffffffffffffffffffffffff16815260200190815260200160002060008373ffffffffffffffffffffffffffffffffffffffff1673ffffffffffffffffffffffffffffffffffffffff16815260200190815260200160002060009054906101000a900460ff16905092915050565b610f806111be565b73ffffffffffffffffffffffffffffffffffffffff16610f9e610c29565b73ffffffffffffffffffffffffffffffffffffffff1614610ff4576040517f08c379a0000000000000000000000000000000000000000000000000000000008152600401610feb90612db4565b60405180910390fd5b600073ffffffffffffffffffffffffffffffffffffffff168173ffffffffffffffffffffffffffffffffffffffff161415611064576040517f08c379a000000000000000000000000000000000000000000000000000000000815260040161105b90612c54565b60405180910390fd5b61106d8161178c565b50565b60007f80ac58cd000000000000000000000000000000000000000000000000000000007bffffffffffffffffffffffffffffffffffffffffffffffffffffffff1916827bffffffffffffffffffffffffffffffffffffffffffffffffffffffff1916148061113b57507f5b5e139f000000000000000000000000000000000000000000000000000000007bffffffffffffffffffffffffffffffffffffffffffffffffffffffff1916827bffffffffffffffffffffffffffffffffffffffffffffffffffffffff1916145b8061114b575061114a82611bfb565b5b9050919050565b60008073ffffffffffffffffffffffffffffffffffffffff166003600084815260200190815260200160002060009054906101000a900473ffffffffffffffffffffffffffffffffffffffff1673ffffffffffffffffffffffffffffffffffffffff1614159050919050565b600033905090565b816005600083815260200190815260200160002060006101000a81548173ffffffffffffffffffffffffffffffffffffffff021916908373ffffffffffffffffffffffffffffffffffffffff160217905550808273ffffffffffffffffffffffffffffffffffffffff1661123983610a37565b73ffffffffffffffffffffffffffffffffffffffff167f8c5be1e5ebec7d5bd14f71427d1e84f3dd0314c0f7b2291e5b200ac8c7c3b92560405160405180910390a45050565b600061128a82611152565b6112c9576040517f08c379a00000000000000000000000000000000000000000000000000000000081526004016112c090612cf4565b60405180910390fd5b60006112d483610a37565b90508073ffffffffffffffffffffffffffffffffffffffff168473ffffffffffffffffffffffffffffffffffffffff16148061134357508373ffffffffffffffffffffffffffffffffffffffff1661132b8461068d565b73ffffffffffffffffffffffffffffffffffffffff16145b8061135457506113538185610ee4565b5b91505092915050565b8273ffffffffffffffffffffffffffffffffffffffff1661137d82610a37565b73ffffffffffffffffffffffffffffffffffffffff16146113d3576040517f08c379a00000000000000000000000000000000000000000000000000000000081526004016113ca90612c74565b60405180910390fd5b600073ffffffffffffffffffffffffffffffffffffffff168273ffffffffffffffffffffffffffffffffffffffff161415611443576040517f08c379a000000000000000000000000000000000000000000000000000000000815260040161143a90612cb4565b60405180910390fd5b61144e838383611c65565b6114596000826111c6565b6001600460008573ffffffffffffffffffffffffffffffffffffffff1673ffffffffffffffffffffffffffffffffffffffff16815260200190815260200160002060008282546114a99190612f8f565b925050819055506001600460008473ffffffffffffffffffffffffffffffffffffffff1673ffffffffffffffffffffffffffffffffffffffff16815260200190815260200160002060008282546115009190612f08565b92505081905550816003600083815260200190815260200160002060006101000a81548173ffffffffffffffffffffffffffffffffffffffff021916908373ffffffffffffffffffffffffffffffffffffffff160217905550808273ffffffffffffffffffffffffffffffffffffffff168473ffffffffffffffffffffffffffffffffffffffff167fddf252ad1be2c89b69c2b068fc378daa952ba7f163c4a11628f55a4df523b3ef60405160405180910390a46115bf838383611d79565b505050565b60006115d13360006108b5565b905090565b61166c816040516024016115ea9190612e54565b6040516020818303038152906040527ff5b1bba9000000000000000000000000000000000000000000000000000000007bffffffffffffffffffffffffffffffffffffffffffffffffffffffff19166020820180517bffffffffffffffffffffffffffffffffffffffffffffffffffffffff8381831617835250505050611d7e565b50565b600061167a82610a37565b905061168881600084611c65565b6116936000836111c6565b6001600460008373ffffffffffffffffffffffffffffffffffffffff1673ffffffffffffffffffffffffffffffffffffffff16815260200190815260200160002060008282546116e39190612f8f565b925050819055506003600083815260200190815260200160002060006101000a81549073ffffffffffffffffffffffffffffffffffffffff021916905581600073ffffffffffffffffffffffffffffffffffffffff168273ffffffffffffffffffffffffffffffffffffffff167fddf252ad1be2c89b69c2b068fc378daa952ba7f163c4a11628f55a4df523b3ef60405160405180910390a461178881600084611d79565b5050565b60008060009054906101000a900473ffffffffffffffffffffffffffffffffffffffff169050816000806101000a81548173ffffffffffffffffffffffffffffffffffffffff021916908373ffffffffffffffffffffffffffffffffffffffff1602179055508173ffffffffffffffffffffffffffffffffffffffff168173ffffffffffffffffffffffffffffffffffffffff167f8be0079c531659141344cd1fd0a4f28419497f9722a3daafe3b4186f6b6457e060405160405180910390a35050565b61186a828260405180602001604052806000815250611da7565b5050565b8173ffffffffffffffffffffffffffffffffffffffff168373ffffffffffffffffffffffffffffffffffffffff1614156118dd576040517f08c379a00000000000000000000000000000000000000000000000000000000081526004016118d490612cd4565b60405180910390fd5b80600660008573ffffffffffffffffffffffffffffffffffffffff1673ffffffffffffffffffffffffffffffffffffffff16815260200190815260200160002060008473ffffffffffffffffffffffffffffffffffffffff1673ffffffffffffffffffffffffffffffffffffffff16815260200190815260200160002060006101000a81548160ff0219169083151502179055508173ffffffffffffffffffffffffffffffffffffffff168373ffffffffffffffffffffffffffffffffffffffff167f17307eab39ab6107e8899845ad3d59bd9653f200f220920489ca2b5937696c31836040516119ce9190612bd7565b60405180910390a3505050565b6119e684848461135d565b6119f284848484611e02565b611a31576040517f08c379a0000000000000000000000000000000000000000000000000000000008152600401611a2890612c34565b60405180910390fd5b50505050565b606060405180602001604052806000815250905090565b60606000821415611a96576040518060400160405280600181526020017f30000000000000000000000000000000000000000000000000000000000000008152509050611bf6565b600082905060005b60008214611ac8578080611ab1906130dc565b915050600a82611ac19190612f5e565b9150611a9e565b60008167ffffffffffffffff811115611b0a577f4e487b7100000000000000000000000000000000000000000000000000000000600052604160045260246000fd5b6040519080825280601f01601f191660200182016040528015611b3c5781602001600182028036833780820191505090505b5090505b60008514611bef57600182611b559190612f8f565b9150600a85611b649190613125565b6030611b709190612f08565b60f81b818381518110611bac577f4e487b7100000000000000000000000000000000000000000000000000000000600052603260045260246000fd5b60200101907effffffffffffffffffffffffffffffffffffffffffffffffffffffffffffff1916908160001a905350600a85611be89190612f5e565b9450611b40565b8093505050505b919050565b60007f01ffc9a7000000000000000000000000000000000000000000000000000000007bffffffffffffffffffffffffffffffffffffffffffffffffffffffff1916827bffffffffffffffffffffffffffffffffffffffffffffffffffffffff1916149050919050565b611c70838383611f99565b600073ffffffffffffffffffffffffffffffffffffffff168373ffffffffffffffffffffffffffffffffffffffff161415611cb357611cae81611f9e565b611cf2565b8173ffffffffffffffffffffffffffffffffffffffff168373ffffffffffffffffffffffffffffffffffffffff1614611cf157611cf08382611fe7565b5b5b600073ffffffffffffffffffffffffffffffffffffffff168273ffffffffffffffffffffffffffffffffffffffff161415611d3557611d3081612154565b611d74565b8273ffffffffffffffffffffffffffffffffffffffff168273ffffffffffffffffffffffffffffffffffffffff1614611d7357611d728282612297565b5b5b505050565b505050565b60008151905060006a636f6e736f6c652e6c6f679050602083016000808483855afa5050505050565b611db18383612316565b611dbe6000848484611e02565b611dfd576040517f08c379a0000000000000000000000000000000000000000000000000000000008152600401611df490612c34565b60405180910390fd5b505050565b6000611e238473ffffffffffffffffffffffffffffffffffffffff166124f0565b15611f8c578373ffffffffffffffffffffffffffffffffffffffff1663150b7a02611e4c6111be565b8786866040518563ffffffff1660e01b8152600401611e6e9493929190612b8b565b602060405180830381600087803b158015611e8857600080fd5b505af1925050508015611eb957506040513d601f19601f82011682018060405250810190611eb691906127b4565b60015b611f3c573d8060008114611ee9576040519150601f19603f3d011682016040523d82523d6000602084013e611eee565b606091505b50600081511415611f34576040517f08c379a0000000000000000000000000000000000000000000000000000000008152600401611f2b90612c34565b60405180910390fd5b805181602001fd5b63150b7a0260e01b7bffffffffffffffffffffffffffffffffffffffffffffffffffffffff1916817bffffffffffffffffffffffffffffffffffffffffffffffffffffffff191614915050611f91565b600190505b949350505050565b505050565b600980549050600a600083815260200190815260200160002081905550600981908060018154018082558091505060019003906000526020600020016000909190919091505550565b60006001611ff484610ae9565b611ffe9190612f8f565b90506000600860008481526020019081526020016000205490508181146120e3576000600760008673ffffffffffffffffffffffffffffffffffffffff1673ffffffffffffffffffffffffffffffffffffffff168152602001908152602001600020600084815260200190815260200160002054905080600760008773ffffffffffffffffffffffffffffffffffffffff1673ffffffffffffffffffffffffffffffffffffffff168152602001908152602001600020600084815260200190815260200160002081905550816008600083815260200190815260200160002081905550505b6008600084815260200190815260200160002060009055600760008573ffffffffffffffffffffffffffffffffffffffff1673ffffffffffffffffffffffffffffffffffffffff16815260200190815260200160002060008381526020019081526020016000206000905550505050565b600060016009805490506121689190612f8f565b90506000600a60008481526020019081526020016000205490506000600983815481106121be577f4e487b7100000000000000000000000000000000000000000000000000000000600052603260045260246000fd5b906000526020600020015490508060098381548110612206577f4e487b7100000000000000000000000000000000000000000000000000000000600052603260045260246000fd5b906000526020600020018190555081600a600083815260200190815260200160002081905550600a600085815260200190815260200160002060009055600980548061227b577f4e487b7100000000000000000000000000000000000000000000000000000000600052603160045260246000fd5b6001900381819060005260206000200160009055905550505050565b60006122a283610ae9565b905081600760008573ffffffffffffffffffffffffffffffffffffffff1673ffffffffffffffffffffffffffffffffffffffff168152602001908152602001600020600083815260200190815260200160002081905550806008600084815260200190815260200160002081905550505050565b600073ffffffffffffffffffffffffffffffffffffffff168273ffffffffffffffffffffffffffffffffffffffff161415612386576040517f08c379a000000000000000000000000000000000000000000000000000000000815260040161237d90612d74565b60405180910390fd5b61238f81611152565b156123cf576040517f08c379a00000000000000000000000000000000000000000000000000000000081526004016123c690612c94565b60405180910390fd5b6123db60008383611c65565b6001600460008473ffffffffffffffffffffffffffffffffffffffff1673ffffffffffffffffffffffffffffffffffffffff168152602001908152602001600020600082825461242b9190612f08565b92505081905550816003600083815260200190815260200160002060006101000a81548173ffffffffffffffffffffffffffffffffffffffff021916908373ffffffffffffffffffffffffffffffffffffffff160217905550808273ffffffffffffffffffffffffffffffffffffffff16600073ffffffffffffffffffffffffffffffffffffffff167fddf252ad1be2c89b69c2b068fc378daa952ba7f163c4a11628f55a4df523b3ef60405160405180910390a46124ec60008383611d79565b5050565b6000808273ffffffffffffffffffffffffffffffffffffffff163b119050919050565b600061252661252184612e94565b612e6f565b90508281526020810184848401111561253e57600080fd5b612549848285613037565b509392505050565b60008135905061256081613719565b92915050565b60008135905061257581613730565b92915050565b60008135905061258a81613747565b92915050565b60008151905061259f81613747565b92915050565b600082601f8301126125b657600080fd5b81356125c6848260208601612513565b91505092915050565b6000813590506125de8161375e565b92915050565b6000602082840312156125f657600080fd5b600061260484828501612551565b91505092915050565b6000806040838503121561262057600080fd5b600061262e85828601612551565b925050602061263f85828601612551565b9150509250929050565b60008060006060848603121561265e57600080fd5b600061266c86828701612551565b935050602061267d86828701612551565b925050604061268e868287016125cf565b9150509250925092565b600080600080608085870312156126ae57600080fd5b60006126bc87828801612551565b94505060206126cd87828801612551565b93505060406126de878288016125cf565b925050606085013567ffffffffffffffff8111156126fb57600080fd5b612707878288016125a5565b91505092959194509250565b6000806040838503121561272657600080fd5b600061273485828601612551565b925050602061274585828601612566565b9150509250929050565b6000806040838503121561276257600080fd5b600061277085828601612551565b9250506020612781858286016125cf565b9150509250929050565b60006020828403121561279d57600080fd5b60006127ab8482850161257b565b91505092915050565b6000602082840312156127c657600080fd5b60006127d484828501612590565b91505092915050565b6000602082840312156127ef57600080fd5b60006127fd848285016125cf565b91505092915050565b61280f81612fc3565b82525050565b61281e81612fd5565b82525050565b600061282f82612ec5565b6128398185612edb565b9350612849818560208601613046565b61285281613212565b840191505092915050565b600061286882612ed0565b6128728185612eec565b9350612882818560208601613046565b61288b81613212565b840191505092915050565b60006128a182612ed0565b6128ab8185612efd565b93506128bb818560208601613046565b80840191505092915050565b60006128d4602b83612eec565b91506128df82613223565b604082019050919050565b60006128f7603283612eec565b915061290282613272565b604082019050919050565b600061291a602683612eec565b9150612925826132c1565b604082019050919050565b600061293d602583612eec565b915061294882613310565b604082019050919050565b6000612960601c83612eec565b915061296b8261335f565b602082019050919050565b6000612983602483612eec565b915061298e82613388565b604082019050919050565b60006129a6601983612eec565b91506129b1826133d7565b602082019050919050565b60006129c9602c83612eec565b91506129d482613400565b604082019050919050565b60006129ec603883612eec565b91506129f78261344f565b604082019050919050565b6000612a0f602a83612eec565b9150612a1a8261349e565b604082019050919050565b6000612a32602983612eec565b9150612a3d826134ed565b604082019050919050565b6000612a55602083612eec565b9150612a608261353c565b602082019050919050565b6000612a78602c83612eec565b9150612a8382613565565b604082019050919050565b6000612a9b602083612eec565b9150612aa6826135b4565b602082019050919050565b6000612abe602f83612eec565b9150612ac9826135dd565b604082019050919050565b6000612ae1602183612eec565b9150612aec8261362c565b604082019050919050565b6000612b04603183612eec565b9150612b0f8261367b565b604082019050919050565b6000612b27602c83612eec565b9150612b32826136ca565b604082019050919050565b612b468161302d565b82525050565b6000612b588285612896565b9150612b648284612896565b91508190509392505050565b6000602082019050612b856000830184612806565b92915050565b6000608082019050612ba06000830187612806565b612bad6020830186612806565b612bba6040830185612b3d565b8181036060830152612bcc8184612824565b905095945050505050565b6000602082019050612bec6000830184612815565b92915050565b60006020820190508181036000830152612c0c818461285d565b905092915050565b60006020820190508181036000830152612c2d816128c7565b9050919050565b60006020820190508181036000830152612c4d816128ea565b9050919050565b60006020820190508181036000830152612c6d8161290d565b9050919050565b60006020820190508181036000830152612c8d81612930565b9050919050565b60006020820190508181036000830152612cad81612953565b9050919050565b60006020820190508181036000830152612ccd81612976565b9050919050565b60006020820190508181036000830152612ced81612999565b9050919050565b60006020820190508181036000830152612d0d816129bc565b9050919050565b60006020820190508181036000830152612d2d816129df565b9050919050565b60006020820190508181036000830152612d4d81612a02565b9050919050565b60006020820190508181036000830152612d6d81612a25565b9050919050565b60006020820190508181036000830152612d8d81612a48565b9050919050565b60006020820190508181036000830152612dad81612a6b565b9050919050565b60006020820190508181036000830152612dcd81612a8e565b9050919050565b60006020820190508181036000830152612ded81612ab1565b9050919050565b60006020820190508181036000830152612e0d81612ad4565b9050919050565b60006020820190508181036000830152612e2d81612af7565b9050919050565b60006020820190508181036000830152612e4d81612b1a565b9050919050565b6000602082019050612e696000830184612b3d565b92915050565b6000612e79612e8a565b9050612e8582826130ab565b919050565b6000604051905090565b600067ffffffffffffffff821115612eaf57612eae6131e3565b5b612eb882613212565b9050602081019050919050565b600081519050919050565b600081519050919050565b600082825260208201905092915050565b600082825260208201905092915050565b600081905092915050565b6000612f138261302d565b9150612f1e8361302d565b9250827fffffffffffffffffffffffffffffffffffffffffffffffffffffffffffffffff03821115612f5357612f52613156565b5b828201905092915050565b6000612f698261302d565b9150612f748361302d565b925082612f8457612f83613185565b5b828204905092915050565b6000612f9a8261302d565b9150612fa58361302d565b925082821015612fb857612fb7613156565b5b828203905092915050565b6000612fce8261300d565b9050919050565b60008115159050919050565b60007fffffffff0000000000000000000000000000000000000000000000000000000082169050919050565b600073ffffffffffffffffffffffffffffffffffffffff82169050919050565b6000819050919050565b82818337600083830152505050565b60005b83811015613064578082015181840152602081019050613049565b83811115613073576000848401525b50505050565b6000600282049050600182168061309157607f821691505b602082108114156130a5576130a46131b4565b5b50919050565b6130b482613212565b810181811067ffffffffffffffff821117156130d3576130d26131e3565b5b80604052505050565b60006130e78261302d565b91507fffffffffffffffffffffffffffffffffffffffffffffffffffffffffffffffff82141561311a57613119613156565b5b600182019050919050565b60006131308261302d565b915061313b8361302d565b92508261314b5761314a613185565b5b828206905092915050565b7f4e487b7100000000000000000000000000000000000000000000000000000000600052601160045260246000fd5b7f4e487b7100000000000000000000000000000000000000000000000000000000600052601260045260246000fd5b7f4e487b7100000000000000000000000000000000000000000000000000000000600052602260045260246000fd5b7f4e487b7100000000000000000000000000000000000000000000000000000000600052604160045260246000fd5b6000601f19601f8301169050919050565b7f455243373231456e756d657261626c653a206f776e657220696e646578206f7560008201527f74206f6620626f756e6473000000000000000000000000000000000000000000602082015250565b7f4552433732313a207472616e7366657220746f206e6f6e20455243373231526560008201527f63656976657220696d706c656d656e7465720000000000000000000000000000602082015250565b7f4f776e61626c653a206e6577206f776e657220697320746865207a65726f206160008201527f6464726573730000000000000000000000000000000000000000000000000000602082015250565b7f4552433732313a207472616e736665722066726f6d20696e636f72726563742060008201527f6f776e6572000000000000000000000000000000000000000000000000000000602082015250565b7f4552433732313a20746f6b656e20616c7265616479206d696e74656400000000600082015250565b7f4552433732313a207472616e7366657220746f20746865207a65726f2061646460008201527f7265737300000000000000000000000000000000000000000000000000000000602082015250565b7f4552433732313a20617070726f766520746f2063616c6c657200000000000000600082015250565b7f4552433732313a206f70657261746f7220717565727920666f72206e6f6e657860008201527f697374656e7420746f6b656e0000000000000000000000000000000000000000602082015250565b7f4552433732313a20617070726f76652063616c6c6572206973206e6f74206f7760008201527f6e6572206e6f7220617070726f76656420666f7220616c6c0000000000000000602082015250565b7f4552433732313a2062616c616e636520717565727920666f7220746865207a6560008201527f726f206164647265737300000000000000000000000000000000000000000000602082015250565b7f4552433732313a206f776e657220717565727920666f72206e6f6e657869737460008201527f656e7420746f6b656e0000000000000000000000000000000000000000000000602082015250565b7f4552433732313a206d696e7420746f20746865207a65726f2061646472657373600082015250565b7f4552433732313a20617070726f76656420717565727920666f72206e6f6e657860008201527f697374656e7420746f6b656e0000000000000000000000000000000000000000602082015250565b7f4f776e61626c653a2063616c6c6572206973206e6f7420746865206f776e6572600082015250565b7f4552433732314d657461646174613a2055524920717565727920666f72206e6f60008201527f6e6578697374656e7420746f6b656e0000000000000000000000000000000000602082015250565b7f4552433732313a20617070726f76616c20746f2063757272656e74206f776e6560008201527f7200000000000000000000000000000000000000000000000000000000000000602082015250565b7f4552433732313a207472616e736665722063616c6c6572206973206e6f74206f60008201527f776e6572206e6f7220617070726f766564000000000000000000000000000000602082015250565b7f455243373231456e756d657261626c653a20676c6f62616c20696e646578206f60008201527f7574206f6620626f756e64730000000000000000000000000000000000000000602082015250565b61372281612fc3565b811461372d57600080fd5b50565b61373981612fd5565b811461374457600080fd5b50565b61375081612fe1565b811461375b57600080fd5b50565b6137678161302d565b811461377257600080fd5b5056fea26469706673582212206c7cad86402e188751e5f682c9601f9cf54b1eaa2c4020bcb115ba279855b16d64736f6c63430008040033",
  "linkReferences": {},
  "deployedLinkReferences": {}
}