{
    "_format": "hh-sol-artifact-1",
    "contractName": "Mint",
    "sourceName": "contracts/Mint.sol",
    "abi": [
        {
            "inputs": [
                {
                    "internalType": "string",
                    "name": "name",
                    "type": "string"
                },
                {
                    "internalType": "string",
                    "name": "symbol",
                    "type": "string"
                }
            ],
            "stateMutability": "nonpayable",
            "type": "constructor"
        },
        {
            "anonymous": false,
            "inputs": [
                {
                    "indexed": true,
                    "internalType": "address",
                    "name": "owner",
                    "type": "address"
                },
                {
                    "indexed": true,
                    "internalType": "address",
                    "name": "approved",
                    "type": "address"
                },
                {
                    "indexed": true,
                    "internalType": "uint256",
                    "name": "tokenId",
                    "type": "uint256"
                }
            ],
            "name": "Approval",
            "type": "event"
        },
        {
            "anonymous": false,
            "inputs": [
                {
                    "indexed": true,
                    "internalType": "address",
                    "name": "owner",
                    "type": "address"
                },
                {
                    "indexed": true,
                    "internalType": "address",
                    "name": "operator",
                    "type": "address"
                },
                {
                    "indexed": false,
                    "internalType": "bool",
                    "name": "approved",
                    "type": "bool"
                }
            ],
            "name": "ApprovalForAll",
            "type": "event"
        },
        {
            "anonymous": false,
            "inputs": [
                {
                    "indexed": true,
                    "internalType": "address",
                    "name": "previousOwner",
                    "type": "address"
                },
                {
                    "indexed": true,
                    "internalType": "address",
                    "name": "newOwner",
                    "type": "address"
                }
            ],
            "name": "OwnershipTransferred",
            "type": "event"
        },
        {
            "anonymous": false,
            "inputs": [
                {
                    "indexed": true,
                    "internalType": "address",
                    "name": "from",
                    "type": "address"
                },
                {
                    "indexed": true,
                    "internalType": "address",
                    "name": "to",
                    "type": "address"
                },
                {
                    "indexed": true,
                    "internalType": "uint256",
                    "name": "tokenId",
                    "type": "uint256"
                }
            ],
            "name": "Transfer",
            "type": "event"
        },
        {
            "inputs": [
                {
                    "internalType": "address",
                    "name": "to",
                    "type": "address"
                },
                {
                    "internalType": "uint256",
                    "name": "tokenId",
                    "type": "uint256"
                }
            ],
            "name": "approve",
            "outputs": [],
            "stateMutability": "nonpayable",
            "type": "function"
        },
        {
            "inputs": [
                {
                    "internalType": "address",
                    "name": "owner",
                    "type": "address"
                }
            ],
            "name": "balanceOf",
            "outputs": [
                {
                    "internalType": "uint256",
                    "name": "",
                    "type": "uint256"
                }
            ],
            "stateMutability": "view",
            "type": "function"
        },
        {
            "inputs": [
                {
                    "internalType": "address",
                    "name": "",
                    "type": "address"
                }
            ],
            "name": "balances",
            "outputs": [
                {
                    "internalType": "uint256",
                    "name": "",
                    "type": "uint256"
                }
            ],
            "stateMutability": "view",
            "type": "function"
        },
        {
            "inputs": [
                {
                    "internalType": "uint256",
                    "name": "tokenId",
                    "type": "uint256"
                }
            ],
            "name": "getApproved",
            "outputs": [
                {
                    "internalType": "address",
                    "name": "",
                    "type": "address"
                }
            ],
            "stateMutability": "view",
            "type": "function"
        },
        {
            "inputs": [
                {
                    "internalType": "address",
                    "name": "owner",
                    "type": "address"
                },
                {
                    "internalType": "address",
                    "name": "operator",
                    "type": "address"
                }
            ],
            "name": "isApprovedForAll",
            "outputs": [
                {
                    "internalType": "bool",
                    "name": "",
                    "type": "bool"
                }
            ],
            "stateMutability": "view",
            "type": "function"
        },
        {
            "inputs": [
                {
                    "internalType": "uint256",
                    "name": "numberOfMints",
                    "type": "uint256"
                }
            ],
            "name": "mint",
            "outputs": [],
            "stateMutability": "payable",
            "type": "function"
        },
        {
            "inputs": [],
            "name": "name",
            "outputs": [
                {
                    "internalType": "string",
                    "name": "",
                    "type": "string"
                }
            ],
            "stateMutability": "view",
            "type": "function"
        },
        {
            "inputs": [],
            "name": "owner",
            "outputs": [
                {
                    "internalType": "address",
                    "name": "",
                    "type": "address"
                }
            ],
            "stateMutability": "view",
            "type": "function"
        },
        {
            "inputs": [
                {
                    "internalType": "uint256",
                    "name": "tokenId",
                    "type": "uint256"
                }
            ],
            "name": "ownerOf",
            "outputs": [
                {
                    "internalType": "address",
                    "name": "",
                    "type": "address"
                }
            ],
            "stateMutability": "view",
            "type": "function"
        },
        {
            "inputs": [],
            "name": "renounceOwnership",
            "outputs": [],
            "stateMutability": "nonpayable",
            "type": "function"
        },
        {
            "inputs": [
                {
                    "internalType": "address",
                    "name": "from",
                    "type": "address"
                },
                {
                    "internalType": "address",
                    "name": "to",
                    "type": "address"
                },
                {
                    "internalType": "uint256",
                    "name": "tokenId",
                    "type": "uint256"
                }
            ],
            "name": "safeTransferFrom",
            "outputs": [],
            "stateMutability": "nonpayable",
            "type": "function"
        },
        {
            "inputs": [
                {
                    "internalType": "address",
                    "name": "from",
                    "type": "address"
                },
                {
                    "internalType": "address",
                    "name": "to",
                    "type": "address"
                },
                {
                    "internalType": "uint256",
                    "name": "tokenId",
                    "type": "uint256"
                },
                {
                    "internalType": "bytes",
                    "name": "_data",
                    "type": "bytes"
                }
            ],
            "name": "safeTransferFrom",
            "outputs": [],
            "stateMutability": "nonpayable",
            "type": "function"
        },
        {
            "inputs": [
                {
                    "internalType": "address",
                    "name": "operator",
                    "type": "address"
                },
                {
                    "internalType": "bool",
                    "name": "approved",
                    "type": "bool"
                }
            ],
            "name": "setApprovalForAll",
            "outputs": [],
            "stateMutability": "nonpayable",
            "type": "function"
        },
        {
            "inputs": [
                {
                    "internalType": "bytes4",
                    "name": "interfaceId",
                    "type": "bytes4"
                }
            ],
            "name": "supportsInterface",
            "outputs": [
                {
                    "internalType": "bool",
                    "name": "",
                    "type": "bool"
                }
            ],
            "stateMutability": "view",
            "type": "function"
        },
        {
            "inputs": [],
            "name": "symbol",
            "outputs": [
                {
                    "internalType": "string",
                    "name": "",
                    "type": "string"
                }
            ],
            "stateMutability": "view",
            "type": "function"
        },
        {
            "inputs": [
                {
                    "internalType": "uint256",
                    "name": "index",
                    "type": "uint256"
                }
            ],
            "name": "tokenByIndex",
            "outputs": [
                {
                    "internalType": "uint256",
                    "name": "",
                    "type": "uint256"
                }
            ],
            "stateMutability": "view",
            "type": "function"
        },
        {
            "inputs": [
                {
                    "internalType": "address",
                    "name": "owner",
                    "type": "address"
                },
                {
                    "internalType": "uint256",
                    "name": "index",
                    "type": "uint256"
                }
            ],
            "name": "tokenOfOwnerByIndex",
            "outputs": [
                {
                    "internalType": "uint256",
                    "name": "",
                    "type": "uint256"
                }
            ],
            "stateMutability": "view",
            "type": "function"
        },
        {
            "inputs": [
                {
                    "internalType": "uint256",
                    "name": "tokenId",
                    "type": "uint256"
                }
            ],
            "name": "tokenURI",
            "outputs": [
                {
                    "internalType": "string",
                    "name": "",
                    "type": "string"
                }
            ],
            "stateMutability": "view",
            "type": "function"
        },
        {
            "inputs": [],
            "name": "totalSupply",
            "outputs": [
                {
                    "internalType": "uint256",
                    "name": "",
                    "type": "uint256"
                }
            ],
            "stateMutability": "view",
            "type": "function"
        },
        {
            "inputs": [
                {
                    "internalType": "address",
                    "name": "from",
                    "type": "address"
                },
                {
                    "internalType": "address",
                    "name": "to",
                    "type": "address"
                },
                {
                    "internalType": "uint256",
                    "name": "tokenId",
                    "type": "uint256"
                }
            ],
            "name": "transferFrom",
            "outputs": [],
            "stateMutability": "nonpayable",
            "type": "function"
        },
        {
            "inputs": [
                {
                    "internalType": "address",
                    "name": "newOwner",
                    "type": "address"
                }
            ],
            "name": "transferOwnership",
            "outputs": [],
            "stateMutability": "nonpayable",
            "type": "function"
        }
    ],
    "bytecode": "0x60806040523480156200001157600080fd5b506040516200396438038062003964833981810160405281019062000037919062000283565b8181620000596200004d6200009560201b60201c565b6200009d60201b60201c565b81600190805190602001906200007192919062000161565b5080600290805190602001906200008a92919062000161565b505050505062000466565b600033905090565b60008060009054906101000a900473ffffffffffffffffffffffffffffffffffffffff169050816000806101000a81548173ffffffffffffffffffffffffffffffffffffffff021916908373ffffffffffffffffffffffffffffffffffffffff1602179055508173ffffffffffffffffffffffffffffffffffffffff168173ffffffffffffffffffffffffffffffffffffffff167f8be0079c531659141344cd1fd0a4f28419497f9722a3daafe3b4186f6b6457e060405160405180910390a35050565b8280546200016f906200038b565b90600052602060002090601f016020900481019282620001935760008555620001df565b82601f10620001ae57805160ff1916838001178555620001df565b82800160010185558215620001df579182015b82811115620001de578251825591602001919060010190620001c1565b5b509050620001ee9190620001f2565b5090565b5b808211156200020d576000816000905550600101620001f3565b5090565b60006200022862000222846200031f565b620002f6565b9050828152602081018484840111156200024157600080fd5b6200024e84828562000355565b509392505050565b600082601f8301126200026857600080fd5b81516200027a84826020860162000211565b91505092915050565b600080604083850312156200029757600080fd5b600083015167ffffffffffffffff811115620002b257600080fd5b620002c08582860162000256565b925050602083015167ffffffffffffffff811115620002de57600080fd5b620002ec8582860162000256565b9150509250929050565b60006200030262000315565b9050620003108282620003c1565b919050565b6000604051905090565b600067ffffffffffffffff8211156200033d576200033c62000426565b5b620003488262000455565b9050602081019050919050565b60005b838110156200037557808201518184015260208101905062000358565b8381111562000385576000848401525b50505050565b60006002820490506001821680620003a457607f821691505b60208210811415620003bb57620003ba620003f7565b5b50919050565b620003cc8262000455565b810181811067ffffffffffffffff82111715620003ee57620003ed62000426565b5b80604052505050565b7f4e487b7100000000000000000000000000000000000000000000000000000000600052602260045260246000fd5b7f4e487b7100000000000000000000000000000000000000000000000000000000600052604160045260246000fd5b6000601f19601f8301169050919050565b6134ee80620004766000396000f3fe60806040526004361061012a5760003560e01c80636352211e116100ab578063a0712d681161006f578063a0712d6814610418578063a22cb46514610434578063b88d4fde1461045d578063c87b56dd14610486578063e985e9c5146104c3578063f2fde38b146105005761012a565b80636352211e1461033157806370a082311461036e578063715018a6146103ab5780638da5cb5b146103c257806395d89b41146103ed5761012a565b806323b872dd116100f257806323b872dd1461022857806327e235e3146102515780632f745c591461028e57806342842e0e146102cb5780634f6ccce7146102f45761012a565b806301ffc9a71461012f57806306fdde031461016c578063081812fc14610197578063095ea7b3146101d457806318160ddd146101fd575b600080fd5b34801561013b57600080fd5b50610156600480360381019061015191906124ce565b610529565b604051610163919061291a565b60405180910390f35b34801561017857600080fd5b506101816105a3565b60405161018e9190612935565b60405180910390f35b3480156101a357600080fd5b506101be60048036038101906101b99190612520565b610635565b6040516101cb91906128b3565b60405180910390f35b3480156101e057600080fd5b506101fb60048036038101906101f69190612492565b6106ba565b005b34801561020957600080fd5b506102126107d2565b60405161021f9190612b97565b60405180910390f35b34801561023457600080fd5b5061024f600480360381019061024a919061238c565b6107df565b005b34801561025d57600080fd5b5061027860048036038101906102739190612327565b61083f565b6040516102859190612b97565b60405180910390f35b34801561029a57600080fd5b506102b560048036038101906102b09190612492565b610857565b6040516102c29190612b97565b60405180910390f35b3480156102d757600080fd5b506102f260048036038101906102ed919061238c565b6108fc565b005b34801561030057600080fd5b5061031b60048036038101906103169190612520565b61091c565b6040516103289190612b97565b60405180910390f35b34801561033d57600080fd5b5061035860048036038101906103539190612520565b6109b3565b60405161036591906128b3565b60405180910390f35b34801561037a57600080fd5b5061039560048036038101906103909190612327565b610a65565b6040516103a29190612b97565b60405180910390f35b3480156103b757600080fd5b506103c0610b1d565b005b3480156103ce57600080fd5b506103d7610ba5565b6040516103e491906128b3565b60405180910390f35b3480156103f957600080fd5b50610402610bce565b60405161040f9190612935565b60405180910390f35b610432600480360381019061042d9190612520565b610c60565b005b34801561044057600080fd5b5061045b60048036038101906104569190612456565b610cf9565b005b34801561046957600080fd5b50610484600480360381019061047f91906123db565b610d0f565b005b34801561049257600080fd5b506104ad60048036038101906104a89190612520565b610d71565b6040516104ba9190612935565b60405180910390f35b3480156104cf57600080fd5b506104ea60048036038101906104e59190612350565b610e18565b6040516104f7919061291a565b60405180910390f35b34801561050c57600080fd5b5061052760048036038101906105229190612327565b610eac565b005b60007f780e9d63000000000000000000000000000000000000000000000000000000007bffffffffffffffffffffffffffffffffffffffffffffffffffffffff1916827bffffffffffffffffffffffffffffffffffffffffffffffffffffffff1916148061059c575061059b82610fa4565b5b9050919050565b6060600180546105b290612dbc565b80601f01602080910402602001604051908101604052809291908181526020018280546105de90612dbc565b801561062b5780601f106106005761010080835404028352916020019161062b565b820191906000526020600020905b81548152906001019060200180831161060e57829003601f168201915b5050505050905090565b600061064082611086565b61067f576040517f08c379a000000000000000000000000000000000000000000000000000000000815260040161067690612ad7565b60405180910390fd5b6005600083815260200190815260200160002060009054906101000a900473ffffffffffffffffffffffffffffffffffffffff169050919050565b60006106c5826109b3565b90508073ffffffffffffffffffffffffffffffffffffffff168373ffffffffffffffffffffffffffffffffffffffff161415610736576040517f08c379a000000000000000000000000000000000000000000000000000000000815260040161072d90612b37565b60405180910390fd5b8073ffffffffffffffffffffffffffffffffffffffff166107556110f2565b73ffffffffffffffffffffffffffffffffffffffff16148061078457506107838161077e6110f2565b610e18565b5b6107c3576040517f08c379a00000000000000000000000000000000000000000000000000000000081526004016107ba90612a57565b60405180910390fd5b6107cd83836110fa565b505050565b6000600980549050905090565b6107f06107ea6110f2565b826111b3565b61082f576040517f08c379a000000000000000000000000000000000000000000000000000000000815260040161082690612b57565b60405180910390fd5b61083a838383611291565b505050565b600b6020528060005260406000206000915090505481565b600061086283610a65565b82106108a3576040517f08c379a000000000000000000000000000000000000000000000000000000000815260040161089a90612957565b60405180910390fd5b600760008473ffffffffffffffffffffffffffffffffffffffff1673ffffffffffffffffffffffffffffffffffffffff168152602001908152602001600020600083815260200190815260200160002054905092915050565b61091783838360405180602001604052806000815250610d0f565b505050565b60006109266107d2565b8210610967576040517f08c379a000000000000000000000000000000000000000000000000000000000815260040161095e90612b77565b60405180910390fd5b600982815481106109a1577f4e487b7100000000000000000000000000000000000000000000000000000000600052603260045260246000fd5b90600052602060002001549050919050565b6000806003600084815260200190815260200160002060009054906101000a900473ffffffffffffffffffffffffffffffffffffffff169050600073ffffffffffffffffffffffffffffffffffffffff168173ffffffffffffffffffffffffffffffffffffffff161415610a5c576040517f08c379a0000000000000000000000000000000000000000000000000000000008152600401610a5390612a97565b60405180910390fd5b80915050919050565b60008073ffffffffffffffffffffffffffffffffffffffff168273ffffffffffffffffffffffffffffffffffffffff161415610ad6576040517f08c379a0000000000000000000000000000000000000000000000000000000008152600401610acd90612a77565b60405180910390fd5b600460008373ffffffffffffffffffffffffffffffffffffffff1673ffffffffffffffffffffffffffffffffffffffff168152602001908152602001600020549050919050565b610b256110f2565b73ffffffffffffffffffffffffffffffffffffffff16610b43610ba5565b73ffffffffffffffffffffffffffffffffffffffff1614610b99576040517f08c379a0000000000000000000000000000000000000000000000000000000008152600401610b9090612af7565b60405180910390fd5b610ba360006114f8565b565b60008060009054906101000a900473ffffffffffffffffffffffffffffffffffffffff16905090565b606060028054610bdd90612dbc565b80601f0160208091040260200160405190810160405280929190818152602001828054610c0990612dbc565b8015610c565780601f10610c2b57610100808354040283529160200191610c56565b820191906000526020600020905b815481529060010190602001808311610c3957829003601f168201915b5050505050905090565b6000610c6a6107d2565b905060005b82811015610cf457610c8c338284610c879190612c4b565b6115bc565b600b60003373ffffffffffffffffffffffffffffffffffffffff1673ffffffffffffffffffffffffffffffffffffffff1681526020019081526020016000206000815480929190610cdc90612e1f565b91905055508080610cec90612e1f565b915050610c6f565b505050565b610d0b610d046110f2565b83836115da565b5050565b610d20610d1a6110f2565b836111b3565b610d5f576040517f08c379a0000000000000000000000000000000000000000000000000000000008152600401610d5690612b57565b60405180910390fd5b610d6b84848484611747565b50505050565b6060610d7c82611086565b610dbb576040517f08c379a0000000000000000000000000000000000000000000000000000000008152600401610db290612b17565b60405180910390fd5b6000610dc56117a3565b90506000815111610de55760405180602001604052806000815250610e10565b80610def846117ba565b604051602001610e0092919061288f565b6040516020818303038152906040525b915050919050565b6000600660008473ffffffffffffffffffffffffffffffffffffffff1673ffffffffffffffffffffffffffffffffffffffff16815260200190815260200160002060008373ffffffffffffffffffffffffffffffffffffffff1673ffffffffffffffffffffffffffffffffffffffff16815260200190815260200160002060009054906101000a900460ff16905092915050565b610eb46110f2565b73ffffffffffffffffffffffffffffffffffffffff16610ed2610ba5565b73ffffffffffffffffffffffffffffffffffffffff1614610f28576040517f08c379a0000000000000000000000000000000000000000000000000000000008152600401610f1f90612af7565b60405180910390fd5b600073ffffffffffffffffffffffffffffffffffffffff168173ffffffffffffffffffffffffffffffffffffffff161415610f98576040517f08c379a0000000000000000000000000000000000000000000000000000000008152600401610f8f90612997565b60405180910390fd5b610fa1816114f8565b50565b60007f80ac58cd000000000000000000000000000000000000000000000000000000007bffffffffffffffffffffffffffffffffffffffffffffffffffffffff1916827bffffffffffffffffffffffffffffffffffffffffffffffffffffffff1916148061106f57507f5b5e139f000000000000000000000000000000000000000000000000000000007bffffffffffffffffffffffffffffffffffffffffffffffffffffffff1916827bffffffffffffffffffffffffffffffffffffffffffffffffffffffff1916145b8061107f575061107e82611967565b5b9050919050565b60008073ffffffffffffffffffffffffffffffffffffffff166003600084815260200190815260200160002060009054906101000a900473ffffffffffffffffffffffffffffffffffffffff1673ffffffffffffffffffffffffffffffffffffffff1614159050919050565b600033905090565b816005600083815260200190815260200160002060006101000a81548173ffffffffffffffffffffffffffffffffffffffff021916908373ffffffffffffffffffffffffffffffffffffffff160217905550808273ffffffffffffffffffffffffffffffffffffffff1661116d836109b3565b73ffffffffffffffffffffffffffffffffffffffff167f8c5be1e5ebec7d5bd14f71427d1e84f3dd0314c0f7b2291e5b200ac8c7c3b92560405160405180910390a45050565b60006111be82611086565b6111fd576040517f08c379a00000000000000000000000000000000000000000000000000000000081526004016111f490612a37565b60405180910390fd5b6000611208836109b3565b90508073ffffffffffffffffffffffffffffffffffffffff168473ffffffffffffffffffffffffffffffffffffffff16148061127757508373ffffffffffffffffffffffffffffffffffffffff1661125f84610635565b73ffffffffffffffffffffffffffffffffffffffff16145b8061128857506112878185610e18565b5b91505092915050565b8273ffffffffffffffffffffffffffffffffffffffff166112b1826109b3565b73ffffffffffffffffffffffffffffffffffffffff1614611307576040517f08c379a00000000000000000000000000000000000000000000000000000000081526004016112fe906129b7565b60405180910390fd5b600073ffffffffffffffffffffffffffffffffffffffff168273ffffffffffffffffffffffffffffffffffffffff161415611377576040517f08c379a000000000000000000000000000000000000000000000000000000000815260040161136e906129f7565b60405180910390fd5b6113828383836119d1565b61138d6000826110fa565b6001600460008573ffffffffffffffffffffffffffffffffffffffff1673ffffffffffffffffffffffffffffffffffffffff16815260200190815260200160002060008282546113dd9190612cd2565b925050819055506001600460008473ffffffffffffffffffffffffffffffffffffffff1673ffffffffffffffffffffffffffffffffffffffff16815260200190815260200160002060008282546114349190612c4b565b92505081905550816003600083815260200190815260200160002060006101000a81548173ffffffffffffffffffffffffffffffffffffffff021916908373ffffffffffffffffffffffffffffffffffffffff160217905550808273ffffffffffffffffffffffffffffffffffffffff168473ffffffffffffffffffffffffffffffffffffffff167fddf252ad1be2c89b69c2b068fc378daa952ba7f163c4a11628f55a4df523b3ef60405160405180910390a46114f3838383611ae5565b505050565b60008060009054906101000a900473ffffffffffffffffffffffffffffffffffffffff169050816000806101000a81548173ffffffffffffffffffffffffffffffffffffffff021916908373ffffffffffffffffffffffffffffffffffffffff1602179055508173ffffffffffffffffffffffffffffffffffffffff168173ffffffffffffffffffffffffffffffffffffffff167f8be0079c531659141344cd1fd0a4f28419497f9722a3daafe3b4186f6b6457e060405160405180910390a35050565b6115d6828260405180602001604052806000815250611aea565b5050565b8173ffffffffffffffffffffffffffffffffffffffff168373ffffffffffffffffffffffffffffffffffffffff161415611649576040517f08c379a000000000000000000000000000000000000000000000000000000000815260040161164090612a17565b60405180910390fd5b80600660008573ffffffffffffffffffffffffffffffffffffffff1673ffffffffffffffffffffffffffffffffffffffff16815260200190815260200160002060008473ffffffffffffffffffffffffffffffffffffffff1673ffffffffffffffffffffffffffffffffffffffff16815260200190815260200160002060006101000a81548160ff0219169083151502179055508173ffffffffffffffffffffffffffffffffffffffff168373ffffffffffffffffffffffffffffffffffffffff167f17307eab39ab6107e8899845ad3d59bd9653f200f220920489ca2b5937696c318360405161173a919061291a565b60405180910390a3505050565b611752848484611291565b61175e84848484611b45565b61179d576040517f08c379a000000000000000000000000000000000000000000000000000000000815260040161179490612977565b60405180910390fd5b50505050565b606060405180602001604052806000815250905090565b60606000821415611802576040518060400160405280600181526020017f30000000000000000000000000000000000000000000000000000000000000008152509050611962565b600082905060005b6000821461183457808061181d90612e1f565b915050600a8261182d9190612ca1565b915061180a565b60008167ffffffffffffffff811115611876577f4e487b7100000000000000000000000000000000000000000000000000000000600052604160045260246000fd5b6040519080825280601f01601f1916602001820160405280156118a85781602001600182028036833780820191505090505b5090505b6000851461195b576001826118c19190612cd2565b9150600a856118d09190612e68565b60306118dc9190612c4b565b60f81b818381518110611918577f4e487b7100000000000000000000000000000000000000000000000000000000600052603260045260246000fd5b60200101907effffffffffffffffffffffffffffffffffffffffffffffffffffffffffffff1916908160001a905350600a856119549190612ca1565b94506118ac565b8093505050505b919050565b60007f01ffc9a7000000000000000000000000000000000000000000000000000000007bffffffffffffffffffffffffffffffffffffffffffffffffffffffff1916827bffffffffffffffffffffffffffffffffffffffffffffffffffffffff1916149050919050565b6119dc838383611cdc565b600073ffffffffffffffffffffffffffffffffffffffff168373ffffffffffffffffffffffffffffffffffffffff161415611a1f57611a1a81611ce1565b611a5e565b8173ffffffffffffffffffffffffffffffffffffffff168373ffffffffffffffffffffffffffffffffffffffff1614611a5d57611a5c8382611d2a565b5b5b600073ffffffffffffffffffffffffffffffffffffffff168273ffffffffffffffffffffffffffffffffffffffff161415611aa157611a9c81611e97565b611ae0565b8273ffffffffffffffffffffffffffffffffffffffff168273ffffffffffffffffffffffffffffffffffffffff1614611adf57611ade8282611fda565b5b5b505050565b505050565b611af48383612059565b611b016000848484611b45565b611b40576040517f08c379a0000000000000000000000000000000000000000000000000000000008152600401611b3790612977565b60405180910390fd5b505050565b6000611b668473ffffffffffffffffffffffffffffffffffffffff16612233565b15611ccf578373ffffffffffffffffffffffffffffffffffffffff1663150b7a02611b8f6110f2565b8786866040518563ffffffff1660e01b8152600401611bb194939291906128ce565b602060405180830381600087803b158015611bcb57600080fd5b505af1925050508015611bfc57506040513d601f19601f82011682018060405250810190611bf991906124f7565b60015b611c7f573d8060008114611c2c576040519150601f19603f3d011682016040523d82523d6000602084013e611c31565b606091505b50600081511415611c77576040517f08c379a0000000000000000000000000000000000000000000000000000000008152600401611c6e90612977565b60405180910390fd5b805181602001fd5b63150b7a0260e01b7bffffffffffffffffffffffffffffffffffffffffffffffffffffffff1916817bffffffffffffffffffffffffffffffffffffffffffffffffffffffff191614915050611cd4565b600190505b949350505050565b505050565b600980549050600a600083815260200190815260200160002081905550600981908060018154018082558091505060019003906000526020600020016000909190919091505550565b60006001611d3784610a65565b611d419190612cd2565b9050600060086000848152602001908152602001600020549050818114611e26576000600760008673ffffffffffffffffffffffffffffffffffffffff1673ffffffffffffffffffffffffffffffffffffffff168152602001908152602001600020600084815260200190815260200160002054905080600760008773ffffffffffffffffffffffffffffffffffffffff1673ffffffffffffffffffffffffffffffffffffffff168152602001908152602001600020600084815260200190815260200160002081905550816008600083815260200190815260200160002081905550505b6008600084815260200190815260200160002060009055600760008573ffffffffffffffffffffffffffffffffffffffff1673ffffffffffffffffffffffffffffffffffffffff16815260200190815260200160002060008381526020019081526020016000206000905550505050565b60006001600980549050611eab9190612cd2565b90506000600a6000848152602001908152602001600020549050600060098381548110611f01577f4e487b7100000000000000000000000000000000000000000000000000000000600052603260045260246000fd5b906000526020600020015490508060098381548110611f49577f4e487b7100000000000000000000000000000000000000000000000000000000600052603260045260246000fd5b906000526020600020018190555081600a600083815260200190815260200160002081905550600a6000858152602001908152602001600020600090556009805480611fbe577f4e487b7100000000000000000000000000000000000000000000000000000000600052603160045260246000fd5b6001900381819060005260206000200160009055905550505050565b6000611fe583610a65565b905081600760008573ffffffffffffffffffffffffffffffffffffffff1673ffffffffffffffffffffffffffffffffffffffff168152602001908152602001600020600083815260200190815260200160002081905550806008600084815260200190815260200160002081905550505050565b600073ffffffffffffffffffffffffffffffffffffffff168273ffffffffffffffffffffffffffffffffffffffff1614156120c9576040517f08c379a00000000000000000000000000000000000000000000000000000000081526004016120c090612ab7565b60405180910390fd5b6120d281611086565b15612112576040517f08c379a0000000000000000000000000000000000000000000000000000000008152600401612109906129d7565b60405180910390fd5b61211e600083836119d1565b6001600460008473ffffffffffffffffffffffffffffffffffffffff1673ffffffffffffffffffffffffffffffffffffffff168152602001908152602001600020600082825461216e9190612c4b565b92505081905550816003600083815260200190815260200160002060006101000a81548173ffffffffffffffffffffffffffffffffffffffff021916908373ffffffffffffffffffffffffffffffffffffffff160217905550808273ffffffffffffffffffffffffffffffffffffffff16600073ffffffffffffffffffffffffffffffffffffffff167fddf252ad1be2c89b69c2b068fc378daa952ba7f163c4a11628f55a4df523b3ef60405160405180910390a461222f60008383611ae5565b5050565b6000808273ffffffffffffffffffffffffffffffffffffffff163b119050919050565b600061226961226484612bd7565b612bb2565b90508281526020810184848401111561228157600080fd5b61228c848285612d7a565b509392505050565b6000813590506122a38161345c565b92915050565b6000813590506122b881613473565b92915050565b6000813590506122cd8161348a565b92915050565b6000815190506122e28161348a565b92915050565b600082601f8301126122f957600080fd5b8135612309848260208601612256565b91505092915050565b600081359050612321816134a1565b92915050565b60006020828403121561233957600080fd5b600061234784828501612294565b91505092915050565b6000806040838503121561236357600080fd5b600061237185828601612294565b925050602061238285828601612294565b9150509250929050565b6000806000606084860312156123a157600080fd5b60006123af86828701612294565b93505060206123c086828701612294565b92505060406123d186828701612312565b9150509250925092565b600080600080608085870312156123f157600080fd5b60006123ff87828801612294565b945050602061241087828801612294565b935050604061242187828801612312565b925050606085013567ffffffffffffffff81111561243e57600080fd5b61244a878288016122e8565b91505092959194509250565b6000806040838503121561246957600080fd5b600061247785828601612294565b9250506020612488858286016122a9565b9150509250929050565b600080604083850312156124a557600080fd5b60006124b385828601612294565b92505060206124c485828601612312565b9150509250929050565b6000602082840312156124e057600080fd5b60006124ee848285016122be565b91505092915050565b60006020828403121561250957600080fd5b6000612517848285016122d3565b91505092915050565b60006020828403121561253257600080fd5b600061254084828501612312565b91505092915050565b61255281612d06565b82525050565b61256181612d18565b82525050565b600061257282612c08565b61257c8185612c1e565b935061258c818560208601612d89565b61259581612f55565b840191505092915050565b60006125ab82612c13565b6125b58185612c2f565b93506125c5818560208601612d89565b6125ce81612f55565b840191505092915050565b60006125e482612c13565b6125ee8185612c40565b93506125fe818560208601612d89565b80840191505092915050565b6000612617602b83612c2f565b915061262282612f66565b604082019050919050565b600061263a603283612c2f565b915061264582612fb5565b604082019050919050565b600061265d602683612c2f565b915061266882613004565b604082019050919050565b6000612680602583612c2f565b915061268b82613053565b604082019050919050565b60006126a3601c83612c2f565b91506126ae826130a2565b602082019050919050565b60006126c6602483612c2f565b91506126d1826130cb565b604082019050919050565b60006126e9601983612c2f565b91506126f48261311a565b602082019050919050565b600061270c602c83612c2f565b915061271782613143565b604082019050919050565b600061272f603883612c2f565b915061273a82613192565b604082019050919050565b6000612752602a83612c2f565b915061275d826131e1565b604082019050919050565b6000612775602983612c2f565b915061278082613230565b604082019050919050565b6000612798602083612c2f565b91506127a38261327f565b602082019050919050565b60006127bb602c83612c2f565b91506127c6826132a8565b604082019050919050565b60006127de602083612c2f565b91506127e9826132f7565b602082019050919050565b6000612801602f83612c2f565b915061280c82613320565b604082019050919050565b6000612824602183612c2f565b915061282f8261336f565b604082019050919050565b6000612847603183612c2f565b9150612852826133be565b604082019050919050565b600061286a602c83612c2f565b91506128758261340d565b604082019050919050565b61288981612d70565b82525050565b600061289b82856125d9565b91506128a782846125d9565b91508190509392505050565b60006020820190506128c86000830184612549565b92915050565b60006080820190506128e36000830187612549565b6128f06020830186612549565b6128fd6040830185612880565b818103606083015261290f8184612567565b905095945050505050565b600060208201905061292f6000830184612558565b92915050565b6000602082019050818103600083015261294f81846125a0565b905092915050565b600060208201905081810360008301526129708161260a565b9050919050565b600060208201905081810360008301526129908161262d565b9050919050565b600060208201905081810360008301526129b081612650565b9050919050565b600060208201905081810360008301526129d081612673565b9050919050565b600060208201905081810360008301526129f081612696565b9050919050565b60006020820190508181036000830152612a10816126b9565b9050919050565b60006020820190508181036000830152612a30816126dc565b9050919050565b60006020820190508181036000830152612a50816126ff565b9050919050565b60006020820190508181036000830152612a7081612722565b9050919050565b60006020820190508181036000830152612a9081612745565b9050919050565b60006020820190508181036000830152612ab081612768565b9050919050565b60006020820190508181036000830152612ad08161278b565b9050919050565b60006020820190508181036000830152612af0816127ae565b9050919050565b60006020820190508181036000830152612b10816127d1565b9050919050565b60006020820190508181036000830152612b30816127f4565b9050919050565b60006020820190508181036000830152612b5081612817565b9050919050565b60006020820190508181036000830152612b708161283a565b9050919050565b60006020820190508181036000830152612b908161285d565b9050919050565b6000602082019050612bac6000830184612880565b92915050565b6000612bbc612bcd565b9050612bc88282612dee565b919050565b6000604051905090565b600067ffffffffffffffff821115612bf257612bf1612f26565b5b612bfb82612f55565b9050602081019050919050565b600081519050919050565b600081519050919050565b600082825260208201905092915050565b600082825260208201905092915050565b600081905092915050565b6000612c5682612d70565b9150612c6183612d70565b9250827fffffffffffffffffffffffffffffffffffffffffffffffffffffffffffffffff03821115612c9657612c95612e99565b5b828201905092915050565b6000612cac82612d70565b9150612cb783612d70565b925082612cc757612cc6612ec8565b5b828204905092915050565b6000612cdd82612d70565b9150612ce883612d70565b925082821015612cfb57612cfa612e99565b5b828203905092915050565b6000612d1182612d50565b9050919050565b60008115159050919050565b60007fffffffff0000000000000000000000000000000000000000000000000000000082169050919050565b600073ffffffffffffffffffffffffffffffffffffffff82169050919050565b6000819050919050565b82818337600083830152505050565b60005b83811015612da7578082015181840152602081019050612d8c565b83811115612db6576000848401525b50505050565b60006002820490506001821680612dd457607f821691505b60208210811415612de857612de7612ef7565b5b50919050565b612df782612f55565b810181811067ffffffffffffffff82111715612e1657612e15612f26565b5b80604052505050565b6000612e2a82612d70565b91507fffffffffffffffffffffffffffffffffffffffffffffffffffffffffffffffff821415612e5d57612e5c612e99565b5b600182019050919050565b6000612e7382612d70565b9150612e7e83612d70565b925082612e8e57612e8d612ec8565b5b828206905092915050565b7f4e487b7100000000000000000000000000000000000000000000000000000000600052601160045260246000fd5b7f4e487b7100000000000000000000000000000000000000000000000000000000600052601260045260246000fd5b7f4e487b7100000000000000000000000000000000000000000000000000000000600052602260045260246000fd5b7f4e487b7100000000000000000000000000000000000000000000000000000000600052604160045260246000fd5b6000601f19601f8301169050919050565b7f455243373231456e756d657261626c653a206f776e657220696e646578206f7560008201527f74206f6620626f756e6473000000000000000000000000000000000000000000602082015250565b7f4552433732313a207472616e7366657220746f206e6f6e20455243373231526560008201527f63656976657220696d706c656d656e7465720000000000000000000000000000602082015250565b7f4f776e61626c653a206e6577206f776e657220697320746865207a65726f206160008201527f6464726573730000000000000000000000000000000000000000000000000000602082015250565b7f4552433732313a207472616e736665722066726f6d20696e636f72726563742060008201527f6f776e6572000000000000000000000000000000000000000000000000000000602082015250565b7f4552433732313a20746f6b656e20616c7265616479206d696e74656400000000600082015250565b7f4552433732313a207472616e7366657220746f20746865207a65726f2061646460008201527f7265737300000000000000000000000000000000000000000000000000000000602082015250565b7f4552433732313a20617070726f766520746f2063616c6c657200000000000000600082015250565b7f4552433732313a206f70657261746f7220717565727920666f72206e6f6e657860008201527f697374656e7420746f6b656e0000000000000000000000000000000000000000602082015250565b7f4552433732313a20617070726f76652063616c6c6572206973206e6f74206f7760008201527f6e6572206e6f7220617070726f76656420666f7220616c6c0000000000000000602082015250565b7f4552433732313a2062616c616e636520717565727920666f7220746865207a6560008201527f726f206164647265737300000000000000000000000000000000000000000000602082015250565b7f4552433732313a206f776e657220717565727920666f72206e6f6e657869737460008201527f656e7420746f6b656e0000000000000000000000000000000000000000000000602082015250565b7f4552433732313a206d696e7420746f20746865207a65726f2061646472657373600082015250565b7f4552433732313a20617070726f76656420717565727920666f72206e6f6e657860008201527f697374656e7420746f6b656e0000000000000000000000000000000000000000602082015250565b7f4f776e61626c653a2063616c6c6572206973206e6f7420746865206f776e6572600082015250565b7f4552433732314d657461646174613a2055524920717565727920666f72206e6f60008201527f6e6578697374656e7420746f6b656e0000000000000000000000000000000000602082015250565b7f4552433732313a20617070726f76616c20746f2063757272656e74206f776e6560008201527f7200000000000000000000000000000000000000000000000000000000000000602082015250565b7f4552433732313a207472616e736665722063616c6c6572206973206e6f74206f60008201527f776e6572206e6f7220617070726f766564000000000000000000000000000000602082015250565b7f455243373231456e756d657261626c653a20676c6f62616c20696e646578206f60008201527f7574206f6620626f756e64730000000000000000000000000000000000000000602082015250565b61346581612d06565b811461347057600080fd5b50565b61347c81612d18565b811461348757600080fd5b50565b61349381612d24565b811461349e57600080fd5b50565b6134aa81612d70565b81146134b557600080fd5b5056fea2646970667358221220862ddf131034f91fd1ba55257cc3417b981f4385e5865d456622e4ce7db3024064736f6c63430008040033",
    "linkReferences": {},
    "deployedLinkReferences": {}
}